:100000000C9446000C94EB000C9465000C94650075
:100010000C9465000C9465000C9465000C946500CC
:100020000C9465000C9465000C9465000C946500BC
:100030000C9465000C9465000C9465000C946500AC
:100040000C9465000C9465000C9465000C9465009C
:100050000C9465000C9465000C9465000C9465008C
:100060000C9465000C9465000C9465000C9465007C
:100070000C9465000C9465000C9465000C9465006C
:100080000C9465000C9465000C94650011241FBE4F
:10009000CFEFD0E1DEBFCDBF11E0A0E0B1E0E2E5FF
:1000A000F2E000E00BBF02C007900D92AA30B1074A
:1000B000D9F711E0AAE0B1E001C01D92AE30B1075E
:1000C000E1F70E94DC000C9427010C94000080E40E
:1000D0008BBB15BA08950F931F93CF93DF93C091F5
:1000E0000C01D0910D0120910A0130910B0147E0E4
:1000F00000E21EE441C0C9016AE070E00E94130101
:10010000DC01FC01E050FF4F80818BBB45BBC80187
:100110000197F1F7319780818BBB2115310511F4DF
:100120008FE001C08BE085BBC8010197F1F7FD01AD
:10013000E250FF4F80818BBB2230310510F48FE0FD
:1001400001C08DE085BBC8010197F1F7A350BF4FF7
:100150008C918BBB2330310510F48FE001C08EE011
:1001600085BBC8010197F1F72196C233D10520F074
:100170002F5F3F4FC0E0D0E02D30310508F4BBCFFA
:10018000D0930D01C0930C0130930B0120930A0111
:1001900080E88BBB15BA88EE93E020E931E0F901E5
:1001A0003197F1F70197D9F780E48BBB15BADF914E
:1001B000CF911F910F9108958FEF8ABB8FE084BB81
:1001C00080E48BBB15BA81E089BF82E080936A002E
:1001D00080E88FBFFFCF1F920F920FB60F920BB622
:1001E0000F9211242F933F934F935F936F937F93BD
:1001F0008F939F93AF93BF93EF93FF930E946B00F6
:10020000FF91EF91BF91AF919F918F917F916F91EE
:100210005F914F913F912F910F900BBE0F900FBEAA
:100220000F901F901895AA1BBB1B51E107C0AA1F76
:10023000BB1FA617B70710F0A61BB70B881F991F87
:100240005A95A9F780959095BC01CD010895F89431
:02025000FFCFDE
:0A0252003F065B4F666D7D077F6F6E
:00000001FF
